:0200000280007C
:10000000880E002055010800510108005101080028
:1000100051010800510108005101080000000000D2
:100020000000000000000000000000005101080076
:1000300051010800000000005101080051010800B2
:100040005101080051010800510108005101080048
:100050005101080051010800510108005101080038
:10006000950208005101080000000000510108003D
:100070005101080051010800510108000000000072
:1000800000000000A9020800BD020800510108009C
:10009000D102080051010800E5020800F902080039
:1000A0005101080000000000510108005101080042
:1000B00051010800510108005101080051010800D8
:1000C00051010800510108005101080051010800C8
:1000D00051010800510108005101080051010800B8
:1000E00051010800510108005101080051010800A8
:1000F0005101080010B5054C237833B9044B13B1F6
:100100000448AFF300800123237010BD30040020A9
:100110000000000058090800084B10B51BB1084842
:100120000849AFF300800848036803B910BD074BC6
:10013000002BFBD0BDE81040184700BF00000000B6
:100140005809080034040020580908000000000085
:10015000FEE700BF08B51A4B1A4A9A4203D01A4B61
:10016000174A9A4204D3194B194A9A4210D31BE0FA
:1001700013490A1D174B9B1A23F003030433114A3A
:10018000134452F8040B41F8040B9A42F9D1EAE700
:10019000114B124AD21A22F003021A44043B0021E6
:1001A00043F8041B9342FBD10D4B23F0604323F033
:1001B0007F030C4A93600C4B98470C4B9847FEE723
:1001C000000000205809080030040020880A0020A0
:1001D0003004002033040020340400208B0A002067
:1001E0000000080000ED00E085060800B9030800E3
:1001F0004FF48063204A136002F5007213601F4BB6
:100200001B6A13F0807F07D11D4A1C4B1A621A46E5
:10021000936E13F0010FFBD01A4A184B1A621A465C
:10022000936E13F4803FFBD0144A136B23F0030347
:1002300043F001031363936E13F0080FFBD0124ACF
:100240000E4B9A621A46936E13F0020FFBD01122E6
:100250000A4B1A631A46936E13F0080FFBD0122252
:10026000064B1A631A46936E13F0080FFBD0074A29
:10027000074B1A60704700BF000A0E4000060E4090
:100280000908370009083701013F0D2000BD0105AD
:100290000000002008B50248024B984708BD00BF87
:1002A0004C0400208905080008B50248024B984715
:1002B00008BD00BF540400203106080008B50248FC
:1002C000024B984708BD00BF7C040020310608009F
:1002D00008B50248024B984708BD00BFA40400209F
:1002E0003106080008B50248024B984708BD00BF18
:1002F000CC0400208504080008B50248024B98474A
:1003000008BD00BF4C050020850408002DE9F84F0A
:10031000224C234D04F5C07604F502773046A847F9
:100320003846A84704F5247A394632461D4B204604
:10033000984704F5467B5046A84704F56878584628
:10034000A84704F585694046A84704F596664846DF
:10035000A84704F5A7673046A8473846A847124D76
:100360005A46534604F108000121A8474A4643462D
:1003700004F130000221A8473A46334604F1580000
:100380000321A847094D04F580700949A84704F1E5
:1003900080000849A847BDE8F88F00BF4C04002042
:1003A000C503080081050800E105080029040800CC
:1003B0000000094000C0084008B5014B9847FEE71F
:1003C000F101080010B504460023C0F88430194636
:1003D000C0F880308022024B9847204610BD00BFF5
:1003E0009D070800D0F88430D0F88020013303F056
:1003F0007F03934204D0D0F884208154C0F8843025
:10040000704700BFD0F88030D0F88420013303F06B
:100410007F03934206D0D0F88020825CC0F8803001
:100420001046704700207047144A10B4144C002343
:1004300091420160C46080F8703080F8713080F8BB
:10044000723080F8733080F874300BD01623462158
:1004500047224371037100238171C27143725DF8B9
:10046000044B704717231421152243710371002395
:100470008171C27143725DF8044B704700000940FE
:10048000801A0600F8B5036804461D6A427A042AF9
:100490002BD0637A042B1BD040F601031A462B4065
:1004A000934215D1637A052B41D094F8742094F8C7
:1004B00072309A4204D3002384F8743084F8723086
:1004C00040F6235123681020042258629962627218
:1004D000637A052B19D0637A062B00D0F8BD6A0722
:1004E000FCD515F4807539D0F8BDE806D1D540F6B5
:1004F0002352102199625A622B0715D5A36F062249
:100500006272002BC5D09847C3E7A907E3D594F8DA
:1005100072301F2BDFD8591C226884F87210126BBE
:10052000234483F85020D6E705236372B1E7E76FD1
:10053000002FBAD094F8726046B1721ED2B2013266
:1005400004F1300004F150010C4B9847002384F86B
:100550007160304684F87330B847A6E794F8743079
:1005600094F872209A4205D9E218013392F850505B
:1005700084F8743023685D63F8BD00BFD5060800B9
:1005800080E80600704700BF38B5124B05465C692D
:10059000E20719D4A3070AD56868D0F88020D0F8FC
:1005A00084309A420CD00C4B98470A4BD86114F017
:1005B000600F04D0074A136843F48073136038BD9A
:1005C000044B0222DA60F2E799690068C9B2034B72
:1005D0009847DFE700080E4005040800E50308001F
:1005E000022970B419D0032912D0012901D070BC9E
:1005F00070470C4E11211225132401610173002153
:100600008660C561846180E80C0070BC41627047FF
:10061000054E14210E250F24EFE7044E122110255C
:100620001124EAE70080094000400A4000C0094068
:10063000836870B55C690546E20719D4A3070AD53B
:100640006868D0F88020D0F884309A420CD00B4BE8
:10065000AE689847F06114F0600F04D0AA68136880
:1006600043F48073136070BDAB680222DA60F2E776
:1006700099690068C9B2024B9847DFE70504080092
:10068000E503080070B50F4E0F4D761BB61018BF6E
:10069000002405D0013455F8043B9847A642F9D10F
:1006A0000A4E0B4D00F044F9761BB61018BF00241B
:1006B00006D0013455F8043B9847A642F9D170BDE5
:1006C00070BD00BF3C0908003C090800480908004B
:1006D0003C0908008842F0B50DD98B1898420AD21F
:1006E0008118002A54D09A1A13F8014D934201F848
:1006F000014DF9D1F0BD0F2A48D940EA01039B070B
:1007000047D1154600F1100401F1100353F8106CA5
:10071000103D44F8106C53F80C6C0F2D44F80C6C21
:1007200053F8086C04F1100444F8186C53F8046C86
:1007300003F1100344F8146CE8D8A2F1100323F07D
:100740000F0302F00F0E1033BEF1030F19440344E0
:1007500021D90E4674461D1F56F8047B043C032C19
:1007600045F8047FF8D8AEF1040424F003040434FF
:100770002344214402F0030252B1013B0A4411F820
:10078000014B914203F8014FF9D1F0BD0346F3E765
:10079000F0BD0346F1E77246EEE700BF70B4840790
:1007A00046D0541E002A41D0CDB2034602E0621E5C
:1007B000E4B3144603F8015B9A07F8D1032C2ED951
:1007C000CDB245EA05250F2C45EA054519D926463F
:1007D00003F11002103E0F2E42F8105C42F80C5C40
:1007E00042F8085C42F8045C02F11002F2D8A4F16D
:1007F000100222F00F0204F00F041032032C1344F5
:100800000DD91E462246043A032A46F8045BFAD85C
:10081000221F22F003020432134404F003042CB11B
:10082000C9B21C4403F8011BA342FBD170BC704742
:1008300014460346C2E700BF024B13B1024800F062
:1008400005B8704700000000590808000146002064
:100850000246034600F016B838B5084B084DED1AAD
:10086000AC1018BFED1805D0013C55F8043D984771
:10087000002CF9D1BDE8384000F066B854090800F2
:10088000580908002DE9F047254C0646256888469A
:10089000D5F8484192469946C4B360681F2817DCD2
:1008A000411C76B104EB8003C3F888A0D4F88851CA
:1008B000012282401543022EC4F88851C3F80891E2
:1008C0001ED0831C6160002044F82380BDE8F087BF
:1008D000144B03B34FF4C870AFF300800446D0B19B
:1008E000D5F84831002784E888003846C5F84841E3
:1008F0000121C4F88871C4F88C71002EE1D0D1E7D1
:10090000D4F88C311A43C4F88C21DAE705F5A674C3
:10091000C5F84841C1E74FF0FF30BDE8F08700BFA0
:100920002C0908000000000043000000080000201F
:10093000F8B500BFF8BC08BC9E46704739080800EF
:10094000190108000D030800F8B500BFF8BC08BC89
:080950009E467047F500080007
:1009580000093D000000000000000000F402002033
:100968005C030020C4030020000000000000000019
:10097800000000000000000000000000000000006F
:100988000000000000000000000000002809080026
:10099800000000000000000000000000000000004F
:1009A800000000000000000000000000000000003F
:1009B800000000000000000000000000000000002F
:1009C800000000000000000000000000000000001F
:1009D800000000000000000000000000000000000F
:1009E80000000000000000000000000000000000FF
:1009F80000000000000000000000000000000000EF
:100A080001000000000000000E33CDAB34126DE68B
:100A1800ECDE05000B0000000000000000000000F4
:100A280000000000000000000000000000000000BE
:100A380000000000000000000000000000000000AE
:100A4800000000000000000000000000000000009E
:100A5800000000000000000000000000000000008E
:040000038000000079
:00000001FF
